:101DC000112484B714BE90E083709070892B09F4BD
:101DD00011D18CE080BF8FE009D1BA9ABC9AC49A25
:101DE00086E02CE094E02FBD98BF08B602FEFDCF40
:101DF000B29AA8958150B9F7EE24FF2433E0332E30
:101E0000222423942FED522E9EEC492EC3D08134F0
:101E100061F4C0D0182FDCD0123811F0113811F451
:101E200084E001C083E0A5D0A1C0823411F484E134
:101E300003C0853419F485E0D1D098C0853541F4CC
:101E4000A9D0A82EA7D0B82EAA0CBB1C75018DC096
:101E5000863521F484E0C2D080E0E5CF843609F0F5
:101E60004AC098D097D0182F95D0C0E0D1E092D03A
:101E700089931C17E1F7ACD0F70137BEE89507B698
:101E800000FCFDCFE114F104E1F4C0900001D0901A
:101E90000101D0928501C092840180900801909048
:101EA000090190928701809286018CEF9FEFC80E06
:101EB000D91EC0920801D0920901509200014092AF
:101EC0000101C701A0E0B1E06C9011967C901197E0
:101ED0001296FC01030127BEE89511240296F1E059
:101EE000A034BF0789F725E0F70127BFE89507B6BB
:101EF00000FCFDCF3BC0843759F54CD04BD0082FA8
:101F000049D066D0E701102F209719F48091840101
:101F100014C0C130D10519F4809185010EC0C830BC
:101F2000D10519F48091860108C0C930D10519F492
:101F30008091870102C0FE01849121961AD0115030
:101F400019F70894E11CF11C0150E00EF11C0EC0C1
:101F5000853739F43DD08EE10CD083E90AD08BE08F
:101F600062CF813511F488E041D032D080E101D0D8
:101F70004DCF2AE030E08095089410F4C49802C058
:101F8000C49A000021D020D01FD01ED086952A955B
:101F9000A1F70895B29A48E050E020E030E0B3990C
:101FA000FECF12D011D010D00FD00ED08894B3999C
:101FB000089427954A9509F0F5CFA89505D004D047
:101FC00003D0B29A822F089593E49A95F1F7089579
:101FD000E1DF803209F0FFCF84E1CBCF1F93182FD0
:101FE000D9DF1150E9F7F4DF1F91089598E191BD11
:0E1FF00081BD089580E0FADFE4E0FF27099448
:021FFE000404D9
:0400000300001DC01C
:00000001FF
